:0400000014EF00F009
:10000800FACFCCF4FBCFCDF4E9CFCEF425ED1BF03D
:10001800D8CFBAF4E8CFBBF4E0CFBCF4B6EF1BF00E
:1000280004EE48F07C0EF66E000EF76E10EE28F027
:1000380035EC00F000EE00F014EE48F02EEC00F085
:1000480005EE00F011EE00F02EEC00F0000EF86E58
:10005800F9EF1DF0EE6AE550E150FCE1E250FAE1FB
:1000680012000900F5CFEEFFE550E150FAE1E25049
:10007800F8E1120074656D70657261747572656877
:10008800756D696469747900010000000001000061
:100098000100FFFFF3FFFFFF80FFFFFF85D1040191
:1000A80004017551D8B401D001D014D0550E040103
:1000B8000401766501D001D00DD05C0E0401040165
:1000C800766101D001D006D00401876F010E126E4F
:1000D800040187517DD11B0E04010401766501D00E
:1000E80001D00ED0200E04010401766101D001D0A8
:1000F80007D00401876F030E126E0401875168D17F
:100108002A0E04010401766501D001D00ED02F0E0D
:1001180004010401766101D001D007D00401876F82
:10012800040E126E0401875153D1BAEC1CF050D161
:100138001A0E04010401766501D001D0F6D7200E0D
:1001480004010401766101D001D0EFD70401876F63
:10015800050E126E040187513BD1030E0401040100
:10016800766501D001D0E1D7090E0401040176615A
:1001780001D001D0DAD70401876F070E126E04018F
:10018800875126D1156601D001D02DD0010E04016A
:100198000401766501D001D00ED0050E04010401DA
:1001A800766101D001D007D00401876F010E156E6A
:1001B800040187510DD1040E04010401766501D0B4
:1001C80001D00ED0080E04010401766101D001D0DF
:1001D80007D00401876F020E156E04018751F8D00D
:1001E800BAEC1CF0F5D01504D8A401D001D023D066
:1001F800040E04010401766501D001D096D7080EDB
:1002080004010401766101D001D08FD70401876F02
:10021800000E156E0401875104010401464B472B5B
:100228000401D89004015C3704015D3704015E378E
:1002380004015F37CDD01550020AD8A401D001D0EF
:1002480027D0010E04010401766501D001D06DD7D5
:10025800050E04010401766101D001D066D70401BE
:10026800876F000E156E0401875104010401464B87
:10027800472B040104015C5113120401D8900401B6
:100288005C3704015D3704015E3704015F37A0D095
:10029800BAEC1CF09DD0156601D001D02DD0030E0C
:1002A80004010401766501D001D00ED0090E0401C5
:1002B8000401766101D001D007D00401876F010ED7
:1002C800156E0401875184D0080E04010401766577
:1002D80001D001D00ED0100E04010401766101D0C6
:1002E80001D007D00401876F020E156E04018751F3
:1002F8006FD0BAEC1CF06CD01504D8A401D001D092
:1003080023D0080E04010401766501D001D00DD771
:10031800100E04010401766101D001D006D7040152
:10032800876F000E156E0401875104010401464BC6
:10033800472B0401D89004015C3704015D370401A0
:100348005E3704015F3744D01550020AD8A401D0A3
:1003580001D027D0030E04010401766501D001D035
:10036800E4D6090E04010401766101D001D0DDD67E
:100378000401876F000E156E040187510401040102
:10038800464B472B040104015C5113120401D89019
:1003980004015C3704015D3704015E3704015F37EF
:1003A80017D0BAEC1CF014D01250000A01E177D62D
:1003B800010A01E190D6020A01E1E4D6070A01E147
:1003C800B7D6010A01E1C9D6020A01E164D700D013
:1003D800040104014651080A4711D8A401D001D0EC
:1003E8004DD0042A050E046001D001D033D013503B
:1003F8001A241A6E000E1B201B6E000E1C201C6E89
:10040800000E1D201D6E040E046001D001D010D016
:100418001AC088F41BC089F41CC08AF40401876BD5
:1004280087C41AF088C41BF089C41CF08AC41DF064
:1004380013502424246E000E2520256E000E26203D
:10044800266E000E2720276E0401876F000E136E9C
:1004580004018751000E04010401466F000E0401D7
:10046800476F010E040104015C6F000E04015D6F0B
:10047800000E04015E6F000E04015F6F1250030A44
:10048800D8A401D001D04ED00450040AD8A401D079
:1004980001D048D01AC077F41BC078F41CC079F496
:1004A8001DC07AF4BAEC1CF054EC1FF0C70E04011E
:1004B8000401966F790E0401976F850E04010401FB
:1004C800946F790E0401956F25EC1FF0500E04010E
:1004D8000401966F790E0401976FC10E040104019F
:1004E800946F790E0401956F25EC1FF077C496F48C
:1004F80078C497F479C498F47AC499F4DD0E0401A9
:100508000401946F790E0401956F1FEC15F0040136
:10051800876F010E04010401946F0401875146ECB2
:100528001FF0A4D01250070AD8A401D001D09DD042
:100538000450050AD8A401D001D097D01350040163
:1005480004017B6F04017C6B04017D6B04017E6BED
:1005580024C07FF425C080F426C081F427C082F42B
:100568001AC083F41BC084F41CC085F41DC086F433
:10057800BAEC1CF0040104017B51040104017F253D
:100588000401876F040104017C51040104018021E6
:100598000401886F040104017D51040104018121D3
:1005A8000401896F040104017E51040104018221C0
:1005B80004018A6FFF0E0401871504018B6F000E7A
:1005C8000401881504018C6F000E040189150401CB
:1005D8008D6F000E04018A1504018E6F04018B05CE
:1005E8008C118D118E11D8B401D001D001D03ED01C
:1005F80054EC1FF0C70E04010401966F790E040134
:10060800976F850E04010401946F790E0401956FAC
:1006180025EC1FF0340E04010401966F790E0401D5
:10062800976FC10E04010401946F790E0401956F50
:1006380025EC1FF083C496F484C497F485C498F419
:1006480086C499F4DD0E04010401946F790E040147
:10065800956F1FEC15F00401876F010E040104016A
:10066800946F0401875146EC1FF000D0120004017A
:1006780004017551D8B401D001D004D0040104019B
:10068800762B03D0040104017607C9D1050E0401B5
:100698000401766501D001D009D00C0E04010401D3
:1006A800766101D001D002D0162AC7D10D0E0401FF
:1006B8000401766501D001D019D0160E0401040199
:1006C800766101D001D012D0140E166401D001D089
:1006D8000DD00401776F010E0B6E040177510401F0
:1006E800776F030E166E04017751A7D18DEC1EF0BB
:1006F800A4D10D0E04010401766501D001D0F6D70E
:10070800160E04010401766101D001D0EFD7160658
:10071800166601D001D00AD0000E206E000E216EA0
:100728000401776F020E0B6E0401775186D176C4EF
:100738007AF475C479F4BAEC15F079C441F47AC442
:1007480042F4040104014229FE0ED8B44119D8A488
:1007580001D001D003D08DEC1EF06FD1040104014B
:100768004129D8B44229D8A401D001D001D065D1FB
:1007780021502010D8A401D001D006D004010401D2
:100788004151216E206A7AD004010401415120129E
:10079800040104014251211228D00401776F070E89
:1007A800040104016E6F040177515CD00401776F76
:1007B800050E040104016E6F0401775153D0040142
:1007C800776F080E040104016E6F040177514AD057
:1007D8000401776F090E040104016E6F040177515B
:1007E80041D0040104016E693DD020C077F421C0D6
:1007F80078F427D004017751840AE1E0100ADFE099
:10080800F0D704017751140ADAE0EBD704017751E5
:10081800100AC3E0E6D704017751600AD9E0E1D7AE
:1008280004017751440AC2E0DCD704017751740A05
:10083800BDE0D7D704017751240AAFE0900AADE0B4
:10084800D0D704017851190AD5E0300ADAE0040A51
:10085800DDE0700AE0E0950AE3E0100AE6E0200A2D
:10086800E9E0BFD70401776F030E0B6E04017751DF
:100878000401776F000E066E04017751DED076C44E
:100888007AF475C479F4BAEC15F079C441F47AC4F1
:1008980042F4040104014229FE0ED8B44119D8A437
:1008A80001D001D038D0040104016EAF01D001D0CD
:1008B8001DD704010401756701D001D017D7D8905E
:1008C8000401040144310401786F04010401433137
:1008D8000401776F380E0401775D000E7859D8A0AF
:1008E80001D001D003D71E0E04010401766501D0A2
:1008F80001D0FCD60401776F000E040104016E6F6D
:1009080004017751000E04010401416F000E040137
:10091800426F00D00DD0040104014129D8B4422906
:10092800D8A401D001D001D088D0040104016E07F9
:100938000401300E0624E96EEA6A0401040EEA2274
:10094800040141C4EFFF062A040104016E6701D0C7
:1009580001D057D08DEC1EF054EC1FF0AD0E040101
:100968000401966F790E0401976FCD0E04010401FE
:10097800946F790E0401956F25EC1FF0A60E040103
:100988000401966F790E0401976F850E0401040126
:10099800946F790E0401956F25EC1FF0040120C0B7
:1009A80096F4040121C097F404010401986B040132
:1009B800996BC10E04010401946F790E0401956FBF
:1009C8001FEC15F006C08EF40401300E040104017A
:1009D8008C6F0401040E04018D6FDD0E0401040107
:1009E8008A6F790E04018B6F32EC16F00401776F71
:1009F800010E04010401946F0401775146EC1FF0C5
:100A08001CD0910E04010401435D010E04014459F8
:100A1800D8A001D001D08AD68DEC1EF00ED00B5094
:100A2800000A01E133D6010A01E163D6030A01E1B4
:100A38007ED6010A01E123D700D01200000E04017E
:100A480004017C6F000E04017D6F000E04017E6FAF
:100A5800000E04017F6F0401770E040104019D6FED
:100A68000401040E04019E6F0401750E04010401C3
:100A78009B6F0401040E04019C6F9DEC1DF00401A2
:100A8800770E04010401966F0401040E0401976FA8
:100A98000401750E04010401946F0401040E04019D
:100AA800956F7BEC17F0010E04010401786F000EBE
:100AB8000401796F000E04017A6F000E04017B6F48
:100AC800000E04010401806F000E0401816F04010F
:100AD80004018151800A800F200ED8B4805DD8A00F
:100AE80001D001D001D070D00401770E04010401B7
:100AF800966F0401040E0401976F0401750E04013A
:100B08000401946F0401040E0401956F7BEC17F047
:100B180004010401826F0401770E04010401966F39
:100B28000401040E0401976F0401750E0401040109
:100B3800946F0401040E0401956F7BEC17F0040117
:100B48000401836F1CD026D00401040178510401EC
:100B580004017C13040104017951040104017D138B
:100B6800040104017A51040104017E130401040103
:100B78007B51040104017F130DD0000E2CD183C4D6
:100B880095F482C494F449EC1EF0000ADCE0010AF2
:100B9800DBE0F3D70401D8900401783704017937F2
:100BA80004017A3704017B3704010401804B812B4F
:100BB800040104018151800A800F200ED8B4805DA1
:100BC800D8A001D001D090D704017CC484F40401DA
:100BD8007DC485F404017EC486F404017FC487F4CF
:100BE8000401841F851F861F871F110E06D0D89009
:100BF80004018733863385338433E82EF8D7FF0E14
:100C0800040184150401886F000E04018515040190
:100C1800896F000E0401861504018A6F000E040115
:100C2800871504018B6F04017CC48CF404017DC416
:100C38008DF404017EC48EF404017FC48FF4190E70
:100C480006D0D89004018F338E338D338C33E82E41
:100C5800F8D7FF0E04018C150401906F000E0401F3
:100C68008D150401916F000E04018E150401926F19
:100C7800000E04018F150401936F04018B510401C8
:100C880093190EE104018A510401921909E1040142
:100C980089510401911904E1040188510401901952
:100CA800D8B401D001D002D0000E95D0FF0E0401B7
:100CB8007CC484F404017DC485F404017EC486F4F4
:100CC80004017FC487F40401841F851F861F871FC2
:100CD800040184150401886F000E040185150401C0
:100CE800896F000E0401861504018A6F000E040145
:100CF800871504018B6FFF0E04017CC48CF404017A
:100D08007DC48DF404017EC48EF404017FC48FF485
:100D18008DC48CF48EC48DF48FC48EF404018F6B53
:100D280004018C150401906F000E04018D15040157
:100D3800916F000E04018E150401926F000E0401DC
:100D48008F150401936F04018B51040193190EE16F
:100D580004018A510401921909E10401895104012D
:100D6800911904E10401885104019019D8B401D003
:100D780001D002D0000E2FD054EC1FF0F00E040169
:100D88000401966F790E0401976F850E0401040122
:100D9800946F790E0401956F25EC1FF07CC496F4CE
:100DA8007DC497F47EC498F47FC499F4DD0E0401E1
:100DB8000401946F790E0401956F1FEC15F004017E
:100DC800846F020E04010401946F0401845146ECFF
:100DD8001FF0010E00D01200000E04010401806F04
:100DE800000E0401816F000E0401826F000E0401E1
:100DF800836F010E040104017C6F000E04017D6FF6
:100E0800000E04017E6F000E04017F6F000E0401C6
:100E18000401786F000E0401796F000E04010401CB
:100E28007A6F000E04017B6F0401770E0401040140
:100E38009D6F0401040E04019E6F0401750E0401E8
:100E480004019B6F0401040E04019C6F9DEC1DF0CE
:100E58000401770E04010401966F0401040E0401D5
:100E6800976F0401750E04010401946F0401040EC8
:100E78000401956F7BEC17F0040104017B51800A93
:100E8800800F240ED8B47A5DD8A001D001D001D04B
:100E980018D10401770E04010401966F0401040EB1
:100EA8000401976F0401750E04010401946F040195
:100EB800040E0401956F7BEC17F004010401846FA4
:100EC8000401770E04010401966F0401040E040165
:100ED800976F0401750E04010401946F0401040E58
:100EE8000401956F7BEC17F004010401856F040180
:100EF800770E04010401966F0401040E0401976F34
:100F08000401750E04010401946F0401040E040128
:100F1800956F7BEC17F004010401866F0401770ECE
:100F280004010401966F0401040E0401976F040183
:100F3800750E04010401946F0401040E0401956FF9
:100F48007BEC17F004010401876F7CD004010401D5
:100F58007B51800A800F200ED8B47A5DD8A001D0CA
:100F680001D01AD0040180C488F4040181C489F432
:100F7800040182C48AF4040183C48BF4D890040168
:100F88008B338A338933883388C480F489C481F4E5
:100F98008AC482F48BC483F465D0040104017B51B4
:100FA800800A800F200ED8B47A5DD8A001D001D075
:100FB8001AD0040180C488F4040181C489F40401AE
:100FC80082C48AF4040183C48BF4D89004018B335F
:100FD8008A338933883388C480F489C481F48AC405
:100FE80082F48BC483F4040104017C5104010401DC
:100FF8008013040104017D510401040181130401DB
:1010080004017E51040104018213040104017F518B
:1010180004010401831326D0040104017B51800AD2
:10102800800F1F0ED8B47A5DD8A001D001D008D0A7
:10103800010E04010401786F000E0401796F12D0CB
:10104800000E7ED087C48FF486C48EF485C48DF4D8
:1010580084C48CF4FDEC1BF0000A01E177D7010A87
:101068009CE0DAD70401040179517811D8B401D091
:1010780001D001D026D0040104017B51800A800FE1
:101088001F0ED8B47A5DD8B001D001D00AD00401BF
:10109800D89004017C3704017D3704017E370401B0
:1010A8007F37040104017A4B7B2B040104017B5137
:1010B800800A800F240ED8B47A5DD8A001D001D060
:1010C800E8D654EC1FF0970E04010401966F790ED0
:1010D8000401976F850E04010401946F790E0401D1
:1010E800956F25EC1FF0500E04010401966F790EE0
:1010F8000401976FC10E04010401946F790E040175
:10110800956F25EC1FF080C496F481C497F482C4CF
:1011180098F483C499F4DD0E04010401946F790EE8
:101128000401956F1FEC15F00401886F020E04018D
:101138000401946F0401885146EC1FF0010E00D0A1
:1011480012000401A30E04010401AA6F0401040E95
:101158000401AB6F96D104010401A951250AD8B442
:1011680001D001D005D0A9C4B2F4CCEC1EF089D1CD
:101178000401B06F000E04010401A86F0401B0510E
:1011880060D092D104010401A88F76D00401AAC4CA
:10119800E9FF0401ABC4EAFF0401020E0401AA2717
:1011A800000E0401AB230401EECFACF40401EDCF33
:1011B800ADF404010401AD51AC11D8A401D001D0A3
:1011C80007D09F0E04010401AC6F790E0401AD6FC6
:1011D8001BD004010401AC51F66EE96E050EEA6EEF
:1011E80004010401AD51EA6403D0EA6EEF5003D064
:1011F800F76E0800F55004010401B26FCCEC1EF044
:1012080004010401AC4BAD2B04010401AC51F66E92
:10121800E96E050EEA6E04010401AD51EA6403D0DB
:10122800EA6EEF5003D0F76E0800F5500009D8A415
:1012380001D001D0CED725D1C00E04010401A813D6
:101248001BD00401A1C4F6FF0401A2C4F7FF0401E6
:101258000401A14BA22B08000401F5CFA9F4040155
:10126800A951000A8EE0580A8DE02B0A8FE0060A81
:10127800E3E00D0A87E0DFD70401AAC4E9FF04010F
:10128800ABC4EAFF0401020E0401AA27000E040100
:10129800AB230401EECFACF40401EDCFADF478D06C
:1012A8000401B06F010E04010401A96F0401B051DB
:1012B80004010401A951050AD8A401D001D001D024
:1012C8002AD004010401A951020DFA0EF324F66E86
:1012D800F76A780EF7220900F5CFB0F40900F5CFC8
:1012E800B1F40401B05104010401AC5D0401B15131
:1012F80004010401AD59D8B001D001D001D00BD000
:1013080004010401A92B04010401A951050AD8A468
:1013180001D001D0D6D745D00401B06F010E040129
:101328000401A96F0401B05104010401A951040A80
:10133800D8A401D001D001D0EED704010401A951ED
:10134800020D040EF324F66EF76A790EF7220900EF
:10135800F5CFB0F40900F5CFB1F40401B0510401A0
:101368000401AC5D0401B15104010401AD59D8B0C8
:1013780001D001D001D0CFD704010401A92B040169
:101388000401A951040AD8A401D001D0D6D709D0A4
:1013980004010401A851C00B800ABEE0400A80E0A5
:1013A80000D0A9C4A7F464D056D004010401A75101
:1013B800020DFA0EF324F66EF76A780EF72209008A
:1013C8000401F5CFB4F40A000401F5CFB5F4ACC4B8
:1013D800B2F4ADC4B3F4DDEC17F0B2C4B2F4B3C4E4
:1013E800B3F40A0E04010401B46F000E0401B56FD2
:1013F80043EC1AF004010401B251300F0401040156
:10140800A96F32D004010401A751020D040EF32480
:10141800F66EF76A790EF72209000401F5CFB4F4E5
:101428000A000401F5CFB5F4ACC4B2F4ADC4B3F40A
:10143800DDEC17F00F0E04010401B217230E0401AE
:101448000401B225F66EF76A790EF7220800040146
:10145800F5CFA9F409D004010401A851C00B800AF2
:10146800D1E0400AA2E000D0A9C4B2F4CCEC1EF04E
:1014780004010401A7070401A729D8A401D001D0B9
:1014880093D70401A1C4F6FF0401A2C4F7FF040125
:101498000401A14BA22B08000401F5CFA9F4040113
:1014A800A96701D001D057D600D012000401746F8B
:1014B800000E04010401706F04017451E2D06CC481
:1014C8009DF418C09BF419C09CF421EC1EF0D8A020
:1014D80001D001D04AD0960E040104013D6501D027
:1014E80001D006D018C068F419C069F46CC46DF452
:1014F800040104013D51D8B401D001D024D03DC429
:1015080076F40401746F000E04010401756F040180
:101518007451DBEC0EF03DC476F40401746F000ED8
:1015280004010401756F040174513BEC03F03DC4E0
:1015380076F40401746F000E04010401756F040150
:10154800745152EC00F0040104013C2B0401746F47
:10155800000E040104013D6F040174510401746F0D
:10156800000E176E0401745142D0040104013D6756
:1015780001D001D006D018C066F419C067F46CC455
:101588003BF4040104013C51D8B401D001D024D06B
:101598003CC476F40401746F010E04010401756FF4
:1015A80004017451DBEC0EF03CC476F40401746F52
:1015B800010E04010401756F040174513BEC03F042
:1015C8003CC476F40401746F010E04010401756FC4
:1015D8000401745152EC00F0040104013D2B040194
:1015E800746F000E040104013C6F0401745104017E
:1015F800D8906C33040104016C6701D001D015D078
:101608000401746F800E040104016C6F04017451AD
:10161800184A192A1950020A1810D8A401D001D062
:1016280004D0000E186E000E196E19500401040142
:10163800691904E11850040104016819D8A401D0FB
:1016480001D00ED0040104016C51040104016D6342
:1016580001D001D005D00401040168690401696959
:10166800040104013D51960AD8A401D001D009D043
:101678000401746F010E04010401706F04017451B8
:101688000DD0040104014051191804E104010401BA
:101698003F511818D8A401D001D011D70401040172
:1016A800706701D001D001D0A2D01750D8B401D0B2
:1016B80001D001D09CD066C477F467C478F468C4BC
:1016C80075F469C476F443EC19F075C472F476C401
:1016D80073F40401040173BF01D001D00DD00401DB
:1016E80004017351800A800F320ED8B4725DD8B0ED
:1016F80001D001D001D07BD0040104017351800ACC
:10170800800F9E0ED8B4725DD8A001D001D00CD045
:10171800040104017351800A800FA30ED8B4725DCE
:10172800D8A001D001D000D00401746F000E0401CC
:101738000401716F040174513BC477F466C475F4F5
:1017480067C476F4F0EC06F00401040171273BC489
:1017580077F466C475F467C476F425EC10F00401D8
:10176800040171273BC477F466C475F467C476F442
:101778007AEC0DF00401040171273BC477F466C4C8
:1017880075F467C476F485EC12F00401040171273E
:101798003BC477F466C475F467C476F4FCEC0BF0CC
:1017A8000401040171273BC477F466C475F467C467
:1017B80076F422EC05F00401040171270401746F2A
:1017C800010E176E04017451040104017151D8B45B
:1017D80001D001D00BD0000E186E000E196E000E4D
:1017E800040104013F6F000E0401406F00D0120095
:1017F80004018B6F000E04010401786F04018B5102
:10180800000E040104017D6F000E04017E6F000EBE
:1018180004017F6F000E0401806F010E04010401B2
:10182800816F000E0401826F000E0401836F000EA9
:101838000401846F0401770E040104019D6F040103
:10184800040E04019E6F0401750E040104019B6FD0
:101858000401040E04019C6F9DEC1DF00401770E39
:1018680004010401966F0401040E0401976F04013A
:10187800750E04010401946F0401040E0401956FB0
:101888007BEC17F075C47BF476C47CF40401040186
:1018980077C479F4040104017A6B000E0401040191
:1018A800856F000E0401866F040104018651800AC9
:1018B800800F200ED8B4855DD8A001D001D001D00A
:1018C8005AD00401770E040104018F6F0401040E3D
:1018D8000401906F0401750E040104018D6F040169
:1018E800040E04018E6FDAEC1AF004010401896F0A
:1018F800040104018951020AD8A401D001D002D000
:10190800000EF3D0040104018951D8B401D001D0EC
:1019180018D0040104018151040104017D1304015C
:1019280004018251040104017E130401040183515E
:10193800040104017F13040104018451040104011A
:1019480080130401D890040181370401823704010F
:1019580083370401843704010401854B862B040175
:1019680004018651800A800F200ED8B4855DD8A066
:1019780001D001D0A6D7000E04010401876F000E24
:101988000401886F040104018851800A800F040E45
:10199800D8B4875DD8A001D001D001D04BD00401C4
:1019A800770E040104018F6F0401040E0401906F87
:1019B8000401750E040104018D6F0401040E040175
:1019C8008E6FDAEC1AF0040104018A6F0401040135
:1019D8008A51020AD8A401D001D002D0000E85D0C5
:1019E800040104018A51D8B401D001D013D087C4AE
:1019F8008BF4010E04018C6F04018B2B03D0D8905B
:101A080004018C3704018B2FFAD704018C5104018F
:101A18000401781304010401874B882B0401040195
:101A28008851800A800F040ED8B4875DD8A001D0F1
:101A380001D0B5D70401040178510C0AD8B401D0FB
:101A480001D002D0000E51D054EC1FF0AD0E0401AD
:101A58000401966F790E0401976FCD0E04010401FD
:101A6800946F790E0401956F25EC1FF0730E040135
:101A78000401966F790E0401976F850E0401040125
:101A8800946F790E0401956F25EC1FF00401480E40
:101A980004010401966F0401040E0401976FC10E3E
:101AA80004010401946F790E0401956F25EC1FF071
:101AB8007DC496F47EC497F47FC498F480C499F4E6
:101AC800DD0E04010401946F790E0401956F1FEC7B
:101AD80015F004018B6F010E04010401946F0401D9
:101AE8008B5146EC1FF0010E00D012000401770E56
:101AF800040104019D6F0401040E04019E6F04019A
:101B0800750E040104019B6F0401040E04019C6F0F
:101B18009DEC1DF00401886F000E04010401786F2C
:101B280004018851040E04010401806F000E0401B1
:101B3800816F0401040181AF01D001D001D08AD0A6
:101B48000401886F000E04010401846F04018851A8
:101B5800000E04010401856F000E0401866F040164
:101B680004018651800A800F080ED8B4855DD8A07C
:101B780001D001D001D04BD00401770E040104013B
:101B88008C6F0401040E04018D6F0401750E0401AD
:101B980004018A6F0401040E04018B6FF7EC1CF03A
:101BA80004010401876F040104018751020AD8A4C3
:101BB80001D001D002D0000EF9D0040104018751F0
:101BC800D8B401D001D013D085C488F4010E040123
:101BD800896F0401882B03D0D89004018937040148
:101BE800882FFAD7040189510401040184130401E0
:101BF8000401854B862B040104018651800A800F5D
:101C0800080ED8B4855DD8A001D001D0B5D704019D
:101C180004018051040A8111D8A401D001D002D056
:101C280084C478F404017B0E040104018025E96E64
:101C3800EA6A0401040EEA22040184C4EFFF0401E5
:101C480004018007D8A081070401040181AF01D0F5
:101C580001D076D7000E04010401796F000E04014B
:101C68007A6F000E04010401826F000E0401836F75
:101C7800040104018351800A800F040ED8B4825DE8
:101C8800D8A001D001D001D033D00401886F310E23
:101C9800040104018C6F0401885104017B0E0401C6
:101CA80004018225E96EEA6A0401040EEA22EF5073
:101CB800040104018B6F79C48AF499EC19F00401CA
:101CC800896F0401895104010401796F04017A6B59
:101CD80004010401824B832B040104018351800A0F
:101CE800800F040ED8B4825DD8A001D001D0CDD722
:101CF800040178C488F40401896B040104017A5151
:101D08000401891905E104010401795104018819C4
:101D1800D8B401D001D002D0000E48D054EC1FF046
:101D2800AD0E04010401966F790E0401976FCD0E74
:101D380004010401946F790E0401956F25EC1FF0DE
:101D4800680E04010401966F790E0401976F850EE1
:101D580004010401946F790E0401956F25EC1FF0BE
:101D68000401886F050E040104018E6F0401885177
:101D780004017B0E040104018C6F0401040E0401AC
:101D88008D6FDD0E040104018A6F790E04018B6FDB
:101D980032EC16F00401886F010E04010401946FFF
:101DA8000401885146EC1FF0010E00D01200040116
:101DB80004017551D8B401D001D005D0030E040137
:101DC8000401762704D0030E04010401765F2DD1A7
:101DD8000B0E04010401766501D001D009D0170E5D
:101DE80004010401766101D001D002D0072A28D16C
:101DF800030E04010401766501D001D01CD00E0E3B
:101E080004010401766101D001D015D0190E0764D0
:101E180001D001D00AD00401776F010E0C6E0401C5
:101E28007751000E1E6E000E1F6E0401776F000EB4
:101E3800076E0401775104D176C47AF475C479F435
:101E48008FEC1AF079C422F07AC423F02328FE0E0E
:101E5800D8B42218D8A401D001D003D0EBEC1EF0DE
:101E6800EFD02228D8B42328D8A401D001D001D09B
:101E7800E7D01F501E10D8A401D001D004D02250A2
:101E88001F6E1E6A4DD022501E1223501F121FD0E3
:101E98000401776F060E096E040177513F0E0401A5
:101EA80004016A6F000E04016B6F2ED00401776F76
:101EB800080E096E040177514F0E040104016A6F80
:101EC800000E04016B6F20D0EBEC1EF0B9D01EC0E1
:101ED80077F41FC078F40FD0040177514D0AE6E07B
:101EE800F3D7040177512D0AE1E0EED704017751C9
:101EF8004C0ACEE0E9D7040178510A0AEDE0100A4D
:101F0800F0E0F00AF3E0E0D70401776F020E0C6E00
:101F1800040177510401776F000E076E04017751B1
:101F28008FD076C47AF475C479F48FEC1AF079C43A
:101F380022F07AC423F02328FE0ED8B42218D8A49D
:101F480001D001D003D0EBEC1EF07AD02228D8B40F
:101F58002328D8A401D001D001D072D00401280EC2
:101F68000724E96EEA6A0401040EEA2222C0EFFFA0
:101F7800072A0906096601D001D05DD7EBEC1EF0EF
:101F880054EC1FF0AD0E04010401966F790E0401A4
:101F9800976FCD0E04010401946F790E0401956FBB
:101FA80025EC1FF0A60E04010401966F790E0401BA
:101FB800976F850E04010401946F790E0401956FE3
:101FC80025EC1FF004011EC096F404011FC097F40D
:101FD80004010401986B0401996BC10E040104010A
:101FE800946F790E0401956F1FEC15F007C08EF4FD
:101FF8000401280E040104018C6F0401040E04017D
:102008008D6FDD0E040104018A6F790E04018B6F58
:1020180032EC16F00401776F010E04010401946F8D
:102028000401775146EC1FF00BD00C50000A01E177
:10203800CFD6010A01E100D7030A01E172D700D027
:102048001200000E040104017C6F000E04017D6F74
:10205800000E04017E6F000E04017F6F010E040163
:102068000401786F000E0401796F000E04017A6F85
:10207800000E04017B6F0401770E040104019D6FBB
:102088000401040E04019E6F0401750E040104018D
:102098009B6F0401040E04019C6F9DEC1DF004016C
:1020A800770E04010401966F0401040E0401976F72
:1020B8000401750E04010401946F0401040E040167
:1020C800956F7BEC17F0000E04010401806F000E81
:1020D8000401816F040104018151800A800F0C0EF4
:1020E800D8B4805DD8A001D001D001D08FD0040130
:1020F800770E04010401966F0401040E0401976F22
:102108000401750E04010401946F0401040E040116
:10211800956F7BEC17F004010401826F0401770EC0
:1021280004010401966F0401040E0401976F040171
:10213800750E04010401946F0401040E0401956FE7
:102148007BEC17F004010401836F0401770E04018E
:102158000401966F0401040E0401976F0401750EC3
:1021680004010401946F0401040E0401956F7BECD3
:1021780017F004010401846F0401770E04010401BF
:10218800966F0401040E0401976F0401750E040193
:102198000401946F0401040E0401956F7BEC17F0A1
:1021A80004010401856F0401D89004017C370401FF
:1021B8007D3704017E3704017F3707D017D004012B
:1021C80004017C8113D0000E6BD085C48AF484C4CA
:1021D80089F483C488F482C487F43CEC1CF0000AB8
:1021E800EDE0010AECE0030AEEE000D0040104018E
:1021F800804B812B040104018151800A800F0C0E51
:10220800D8B4805DD8A001D001D071D704017F5126
:102218007C117D117E11D8A401D001D002D0000E0E
:102228003FD054EC1FF0970E04010401966F790E0D
:102238000401976F850E04010401946F790E04015F
:10224800956F25EC1FF05D0E04010401966F790E61
:102258000401976FC10E04010401946F790E040103
:10226800956F25EC1FF07CC496F47DC497F47EC46A
:1022780098F47FC499F4DD0E04010401946F790E7B
:102288000401956F1FEC15F00401866F020E04011E
:102298000401946F0401865146EC1FF0010E00D032
:1022A80012000401746F0B0E04010401716F040124
:1022B80074510401746F0A0E04010401726F040161
:1022C8007451010E040104017A6F000E04017B6F42
:1022D800FC0E04010401786F790E0401796F280E51
:1022E80004010401766F020E0401776FEEEC19F019
:1022F800040177517611D8A401D001D011D00C0E69
:1023080004010401A36F000E0401A46F7E0E0401F2
:102318000401A16F790E0401A26FA5EC08F0F0D0BA
:10232800010E040104017A6F000E04017B6FFA0E9E
:1023380004010401786F790E0401796F280E0401F5
:102348000401766F020E0401776FEEEC19F00401B8
:1023580077517611D8A401D001D00AD0D30E040148
:102368000401A16F790E0401A26FA5EC08F0C8D092
:102378000401746F000E04010401736F04017451A9
:102388000401746F000E04010401706F040174519C
:10239800B0D098D0040173C474F40401756B010EB5
:1023A80004017427000E7523280E04017425E96EB4
:1023B800020E04017521EA6EEF5004010401716FE9
:1023C80004010401732B92D0040173C474F4040152
:1023D800756B010E04017427000E7523280E040185
:1023E8007425E96E020E04017521EA6EEF500401AE
:1023F8000401726F04010401732B78D072C479F45C
:1024080071C478F4010E0401040173250401040168
:10241800766F0401776B000E0401772393EC18F0B4
:102428000401746F010E04010401706F04017451FA
:10243800E20E04010401A16F790E0401A26FA5EC5C
:1024480008F054D072C479F471C478F4010E040110
:102458000401732504010401766F0401776B000EF3
:1024680004017723EBEC18F00401746F010E0401EA
:102478000401706F04017451E70E04010401A16F97
:10248800790E0401A26FA5EC08F030D0280E0401E3
:1024980004017325E96EEA6A020EEA22EF5004018C
:1024A800746F0401745104010401A36F0401A46B47
:1024B8000C0E04010401A16F790E0401A26FA5ECB2
:1024C80008F01ED0280E040104017325E96EEA6A9B
:1024D800020EEA22EF50500A01E15CD7020A01E13C
:1024E80073D7010A8BE0070AADE0D0D704010401D5
:1024F800732B040104017051D8B401D001D049D71D
:102508001200000E04010401786F000E0401796FB7
:10251800000E04017A6F000E04017B6F010E0401A6
:1025280004017C6F000E04017D6F000E04017E6FB4
:10253800000E04017F6F0401770E040104019D6FF2
:102548000401040E04019E6F0401750E04010401C8
:102558009B6F0401040E04019C6F9DEC1DF0000E9E
:1025680004010401806F000E0401816F040104015D
:102578008151800A800F180ED8B4805DD8A001D090
:1025880001D001D0A2D00401770E04010401966F96
:102598000401040E0401976F0401750E040104017F
:1025A800946F0401040E0401956F7BEC17F004018D
:1025B8000401826F0401770E04010401966F04017F
:1025C800040E0401976F0401750E04010401946F51
:1025D8000401040E0401956F7BEC17F0040104015B
:1025E800836F0401770E04010401966F0401040E41
:1025F8000401976F0401750E04010401946F04012E
:10260800040E0401956F7BEC17F004010401846F3C
:102618000401770E04010401966F0401040E0401FD
:10262800976F0401750E04010401946F0401040EF0
:102638000401956F7BEC17F004010401856F1CD031
:102648002AD0040104017C51040104017813040117
:1026580004017D51040104017913040104017E5130
:10266800040104017A13040104017F5104010401E7
:102678007B1311D0000E58D085C48AF484C489F421
:1026880083C488F482C487F47BEC1CF0000AD8E089
:10269800010AD7E0EFD70401D89004017C37040180
:1026A8007D3704017E3704017F3704010401804B24
:1026B800812B040104018151800A800F180ED8B4BF
:1026C800805DD8A001D001D05ED754EC1FF0430E36
:1026D80004010401966F790E0401976F850E0401B9
:1026E8000401946F790E0401956F25EC1FF078C4EE
:1026F80096F479C497F47AC498F47BC499F4DD0EFF
:1027080004010401946F790E0401956F1FEC15F014
:102718000401866F020E04010401946F04018651BE
:1027280046EC1FF0010E00D0120004018B6F000E62
:1027380004010401886F04018B51030E0401040194
:10274800886501D001D001D023D00401040188514B
:10275800040104017E25E96E0401000E0401040150
:102768007F21EA6E0401840E040104018825E16ECC
:10277800E26A0401040EE222EFCFE7FF040104013C
:10278800882B030E04010401886501D001D0DDD730
:10279800050E040104017E2504018B6F000E04015F
:1027A80004017F2104018C6F8BC482F48CC483F4F0
:1027B8000096000E116E0094040100EE04F004016E
:1027C8007E51E92604017F51EA22EF5004010401F9
:1027D800816F04010401816701D001D001D081D04B
:1027E80004010401816701D001D001D072D082C4F4
:1027F800E9FF83C4EAFFEF5004010401806F04017C
:102808008B6F000E04010401896F04018B51030EC4
:1028180004010401896501D001D001D050D080C4E1
:102828008BF4C00E04018B17060E04018C6FD89030
:1028380004018B3304018C2FFAD704018B51040156
:1028480004018A6F0401840E040104018A25E96EDB
:10285800EA6A0401040EEA22010EEF6201D001D0F7
:1028680002D0008613D00401840E040104018A25D5
:10287800E96EEA6A0401040EEA22EF500D6EB18097
:1028880000D000A401D001D0FCD700940401D89056
:102898008037D890803704010401810704010401BE
:1028A800816701D001D001D00AD004010401892B2D
:1028B800030E04010401896501D001D0B0D70401D9
:1028C8000401824B832B04010401816701D001D0EC
:1028D8008ED7009400D000A401D001D0FCD7B190CD
:1028E8008B9A1200026601D001D017D0030E0401A2
:1028F80004017E6501D001D007D00D0E040104014A
:102908007E6501D001D002D0FE0E94D004017F6F05
:10291800010E026E04017F518BD00204D8A401D0AD
:1029280001D039D00B0E040104017E6501D001D01D
:1029380007D0160E040104017E6501D001D01BD01A
:102948000FC07FF40401806B040104016B51040182
:10295800801905E1040104016A5104017F19D8B402
:1029680001D001D008D004017F6F000E026E04016F
:102978007F51FE0E5FD00090040104017DA101D0BB
:10298800008004017F6F020E026E04017F51000E69
:1029980000B0010E4FD00250020AD8A401D001D0D5
:1029A80047D0040104017D51D8B401D001D015D01D
:1029B800030E040104017E6501D001D00ED00E0E75
:1029C800040104017E6101D001D007D004017F6FAA
:1029D800000E026E04017F5129D00B0E0401040180
:1029E8007E6501D001D00ED0170E040104017E616E
:1029F80001D001D007D004017F6F010E026E0401DF
:102A08007F5114D0030E040104017E6501D001D06A
:102A18000DD00E0E040104017E6101D001D006D054
:102A280004017F6F000E026E04017F51FF0E02D079
:102A3800FF0E00D0120094C4A3F495C4A4F4BB0EF6
:102A480004010401A16F790E0401A26FA5EC08F03E
:102A580004019951961197119811D8A401D001D069
:102A68000AD0F20E04010401A16F790E0401A26FCD
:102A7800A5EC08F071D004019D6F010E040104015A
:102A88009A6F04019D5104019D6F000E0401040119
:102A98009B6F04019D51070E040104019B6501D041
:102AA80001D001D059D0040196C49DF4040197C403
:102AB8009EF4040198C49FF4040199C4A0F41D0E67
:102AC80006D0D8900401A0339F339E339D33E82E5F
:102AD800F8D704019D510F0B040104019C6F0401F8
:102AE80004019C6701D001D008D0040104019A05B3
:102AF800D8A401D001D001D018D0040104019CC48D
:102B0800A3F404010401A46BDA0E04010401A16F0B
:102B1800790E0401A26FA5EC08F004019D6F000E68
:102B2800040104019A6F04019D510401040ED89018
:102B3800040196370401973704019837040199373F
:102B4800E82EF5D7040104019B2B070E04010401AC
:102B58009B6501D001D0A7D7950E04010401A16F90
:102B6800790E0401A26FA5EC08F012007AC47FF474
:102B780079C47EF46EEC1BF0040104017B6F0566DA
:102B880001D001D006D004017C6F000E0A6E04014A
:102B98007C51040104017B51FE0AD8A401D001D064
:102BA80008D0FE0E04010401796FFF0E04017A6F4C
:102BB80054D0040104017B29D8A401D001D006D047
:102BC80004010401796904017A6947D01450040AA0
:102BD800D8A401D001D009D00A3AF00E0A1604018F
:102BE8007C6F000E146E04017C51040104017B51BA
:102BF800D8B401D001D011D014C07CF4010E040166
:102C08007D6F04017C2B03D0D89004017D3704012B
:102C18007C2FFAD704017D510A12052A142A080EBE
:102C2800056001D001D006D00401040179690401CE
:102C38007A6913D004017C6F000E056E04017C5183
:102C480004017C6F000E146E04017C5104010AC05B
:102C580079F4040104017A6B00D012008AC4A3F449
:102C68008BC4A4F4EC0E04010401A16F790E0401D5
:102C7800A26FA5EC08F00401906F000E0401040196
:102C88008F6F04019051040104018E510401040165
:102C98008F5DD8A001D001D001D04BD00401040130
:102CA8008F51040104018C25E96E0401000E040112
:102CB80004018D21EA6EEF500401906F0F0E04019C
:102CC80090170401905104010401A56F0401A66B3B
:102CD800040104018F51040104018C25E96E0401EB
:102CE800000E040104018D21EA6EEF500401916F7A
:102CF8000401913B0F0E9117040191510401040145
:102D0800A36F0401A46BD80E04010401A16F790E0E
:102D18000401A26FA5EC08F0040104018F2B040143
:102D280004018E51040104018F5DD8A001D001D0A7
:102D3800B5D7950E04010401A16F790E0401A26FA5
:102D4800A5EC08F012000401D8903A3704010401F8
:102D5800D951D8B401D001D01BD004010401392BBA
:102D6800040104013951030AD8A401D001D005D0C7
:102D7800070E040104013A130AD0030E04010401EA
:102D8800396501D001D003D0040104013A8108D08B
:102D98000401DA6F000E04010401396F0401DA51ED
:102DA8000401D8904537040104013E2B04010401B5
:102DB8003AAF01D001D004D004010401458100D00C
:102DC800040104013E51080AD8A401D001D029D039
:102DD8000401DA6F000E040104013E6F0401DA51A8
:102DE800280E040104013F25E96E000E04010401C8
:102DF8004021EA6E040145C4EFFF040104013F4B82
:102E0800402B040104014051020A3F11D8A401D00B
:102E180001D007D0000E040104013F6F000E040129
:102E2800406F12000096000E116E00947EC4E9FFF8
:102E38007FC4EAFFEF500D6EB18000D000A401D02E
:102E480001D0FCD79D92010E04010401806F000E91
:102E58000401816F2FD00401040180510401040191
:102E68007E25E96E040104018151040104017F21DA
:102E7800EA6E010EEF6201D001D002D0008616D0B2
:102E88000094040104018051040104017E25E96EC7
:102E9800040104018151040104017F21EA6EEF500D
:102EA8000D6E00D000A401D001D0FCD704010401AC
:102EB800804B812B040104018051040104017E250B
:102EC800E96E040104018151040104017F21EA6EC5
:102ED800EF50D8A401D001D0BED79D82009400D075
:102EE80000A401D001D0FCD7B1908B9A1200040144
:102EF8009A6F000E04010401996F04019A5196C457
:102F0800E9FF97C4EAFFEF50040104019D6F94C4E0
:102F1800E9FF95C4EAFF0401EECF9BF40401EDCF6D
:102F28009CF421EC1EF0D8B001D002D0010E01D0E3
:102F3800000E04010401986F04010401992B96C442
:102F48009DF497C49EF494C49BF495C49CF49DECA2
:102F58001DF096C4E9FF97C4EAFFEF50040104018D
:102F68009D6F94C4E9FF95C4EAFF0401EECF9BF47A
:102F78000401EDCF9CF421EC1EF0D8B001D002D0B2
:102F8800010E01D0000E040104019819D8B401D033
:102F980001D004D00401040199510AD004010401AC
:102FA8009929D8A401D001D002D0000E01D0C4D7ED
:102FB8001200000E04010401B76F000E0401B86F7F
:102FC80004010401B551B411D8B401D001D047D0DF
:102FD8000401B96F010E04010401B66F0401B9516F
:102FE80009D00401D8900401B4370401B5370401AD
:102FF8000401B62B04010401B5AF01D001D0F1D70B
:103008000401D8900401B7370401B837040104015A
:10301800B45104010401B25D04010401B551040175
:103028000401B359D8A001D001D00FD00401040184
:10303800B45104010401B25F04010401B551040153
:103048000401B35B04010401B7810401D8900401B1
:10305800B5330401B43304010401B62FD1D7B7C482
:10306800B2F4B8C4B3F400D01200000EAB6EAB8E4D
:10307800AB88AC90AC8AAC84B886948E949C06D00D
:103088000401AECF70F404010401716B9EBA01D043
:1030980001D0F6D70401726F560EAF6E040172515B
:1030A8009F9A9F98F28C9D8A9D98CD909E90000E35
:1030B800CF6E000ECE6ECD9ACD98CD92000E040143
:1030C8000401776F020E0401786F000E04010401F9
:1030D800756F000E0401766F280E04010401736FEA
:1030E800020E0401746FADEC1EF0000E0401040121
:1030F800776F010E0401786F2D0E04010401756FBE
:10310800000E0401766F0501000E04010401736FBF
:103118000501050E0401746FADEC1EF012007AEC87
:103128001FF004017C6F000E040104017A6F040192
:103138007C5140D004017C6F020E040104017E6FB3
:1031480004017C5181EC1FF0280E04017C6F020EF3
:103158007D6F04010401765104017C2704010401F8
:10316800775104017D237CC47EF47DC47FF416EC82
:1031780017F004017C6F000E040104017B6F040149
:103188007C510BD00D0E04017C6FF90EE82EFED792
:103198007C2FFCD7040104017B2B04010401785126
:1031A800040104017B5DD8A001D001D0EBD7040154
:1031B80004017A2B040104017951040104017A5DA8
:1031C800D8A001D001D0B6D770EC1FF012007AEC6D
:1031D8001FF004017C6F000E040104017A6F0401E2
:1031E8007C5140D004017C6F020E040104017E6F03
:1031F80004017C5181EC1FF0280E04017C6F020E43
:103208007D6F04010401765104017C270401040147
:10321800775104017D237CC47EF47DC47FF499EC4E
:1032280013F004017C6F000E040104017B6F04019C
:103238007C510BD00D0E04017C6FF90EE82EFED7E1
:103248007C2FFCD7040104017B2B04010401785175
:10325800040104017B5DD8A001D001D0EBD70401A3
:1032680004017A2B040104017951040104017A5DF7
:10327800D8A001D001D0B6D770EC1FF0120004011D
:1032880004017529D8B47629D8A401D001D006D074
:103298000401040175690401766946D0040104013A
:1032A8007851800A0401796F040175510401040101
:1032B800775D040104017651800A04017959D8A088
:1032C80001D001D012D00401040175510401040198
:1032D800775D04010401756F04010401765104014E
:1032E800040178590401766F1FD0000E0401796F2C
:1032F800020E7A6F0401040175510401795F04011B
:103308000401765104017A5B040104017751040138
:10331800792504010401756F040104017851040141
:103328007A210401766F00D01200800E0401040196
:103338008F6F000E0401906F0401040190518F11EA
:10334800D8A401D001D001D040D00401000E04015E
:103358008ABF010E040104018D6F04018E6B040104
:1033680004018B51040104018F150009D8B401D060
:1033780001D00CD0040104018E518D11000ED8B477
:10338800010E040104018D6F04018E6B0401D890B5
:103398008A37040104018E518D11D8B401D001D0AF
:1033A80006D0040104018C51040104018A1B0401A4
:1033B800D8900401903304018F3304010401905123
:1033C8008F11D8A401D001D0C0D7040104018A51BB
:1033D80000D012003ED076C4E9FF77C4EAFFEF5070
:1033E800D8B401D001D014D0040178C4F6FF040188
:1033F80079C4F7FF0800F5CF7CF476C4E9FF77C4F9
:10340800EAFFEF5004017C19D8B401D001D019D0DB
:1034180076C4E9FF77C4EAFFEF5004017C6F04012A
:1034280078C4F6FF040179C4F7FF0800F5500401D9
:103438007C5D04010401766F0401776BD8A07707DF
:103448001DD004010401764B772B04010401784B4D
:10345800792B040104017A07D8A07B0704017A2993
:10346800D8B47B29D8A401D001D0B5D7000E040167
:103478000401766F000E0401776F00D0120004017A
:103488000401B551B411D8B401D001D03ED0040123
:10349800B76F010E04010401B66F0401B75109D0DA
:1034A8000401D8900401B4370401B53704010401BC
:1034B800B62B04010401B5AF01D001D0F1D7040146
:1034C8000401B45104010401B25D04010401B551C1
:1034D80004010401B359D8A001D001D00CD00401D3
:1034E8000401B45104010401B25F04010401B5519F
:1034F80004010401B35B0401D8900401B53304014D
:10350800B43304010401B62FDAD7B2C4B2F4B3C499
:10351800B3F400D012007AC47EF479C47DF476EC5A
:1035280014F0040104017B6F040104017B51FE0ABD
:10353800D8A401D001D008D0FE0E04010401796F8F
:10354800FF0E04017A6F31D0040104017B29D8A44D
:1035580001D001D006D004010401796904017A6917
:1035680024D0D8900832040104017B51D8B401D08A
:1035780001D001D0088E0F2A032A080E036001D05B
:1035880001D006D004010401796904017A690DD0DB
:1035980004017C6F000E036E04017C51040108C015
:1035A80079F4040104017A6B00D012008FC496F4F8
:1035B80090C497F48DC494F48EC495F47BEC17F002
:1035C80004010401926F1D0E04010401926501D0EB
:1035D80001D009D0290E04010401926101D001D063
:1035E80002D0000E2DD08FC496F490C497F48DC4E9
:1035F80094F48EC495F47BEC17F004010401916FE8
:10360800090E04010401926501D001D017D0150EEE
:1036180004010401926101D001D010D0090E040107
:103628000401916501D001D009D0150E04010401EF
:10363800916101D001D002D0010E02D0020E00D05B
:1036480012000600EACFCFF4E1CFD0F4E2CFD1F4F4
:10365800D9CFD2F4DACFD3F4F3CFD4F4F4CFD5F46E
:10366800F6CFD6F4F7CFD7F4F8CFD8F4F2A401D038
:1036780001D00BD0000E82BA010E04010401D96FEB
:10368800A7EC16F0000ED66EF294A1A201D001D0DC
:1036980006D0B368C90EB26E09EC1FF0A192D8C467
:1036A800F8FFD7C4F7FFD6C4F6FFD5C4F4FFD4C4D7
:1036B800F3FFD3C4DAFFD2C4D9FFD1C4E2FFD0C428
:1036C800E1FFCFC4EAFFCEC4E9FFCDC4FBFFCCC401
:1036D800FAFF11000D0E040104017F6501D001D02D
:1036E80020D0160E040104017F6101D001D019D049
:1036F8000401040143A101D001D002D0FE0E31D053
:10370800020E04010401432504010401436F000E65
:103718000401040144210401446F040104017E51A1
:1037280020D0050E040104017F6501D001D017D017
:103738000C0E040104017F6101D001D010D00401F6
:103748000401434B442B0401040143B101D001D0CF
:1037580004D0040104017E5104D0FF0E02D0FE0EF5
:1037680000D01200FACFBDF4FBCFBEF4E9CFBFF40E
:10377800EACFC0F4E1CFC1F4E2CFC2F4D9CFC3F4A9
:10378800DACFC4F4F3CFC5F4F4CFC6F4F6CFC7F458
:10379800F7CFC8F4F8CFC9F49EAA01D001D002D05F
:1037A80034EC1DF09EA801D001D002D0CCEC1DF065
:1037B800C9C4F8FFC8C4F7FFC7C4F6FFC6C4F4FFFE
:1037C800C5C4F3FFC4C4DAFFC3C4D9FFC2C4E2FF4F
:1037D800C1C4E1FFC0C4EAFFBFC4E9FFBEC4FBFF28
:1037E800BDC4FAFFBCC4E0FFBBC4E8FFBAC4D8FF3D
:1037F80010000F0E040104018C6501D001D017D010
:103808000A0E040104018D6101D001D010D00A0E06
:10381800040104018E6101D001D009D00A0E04010F
:1038280004018F6101D001D002D0000E20D00A0E11
:10383800040104018C6101D001D017D00A0E0401E3
:1038480004018D6101D001D010D00F0E04010401D4
:103858008E6501D001D009D00A0E040104018F61E0
:1038680001D001D002D0010E02D0020E00D0120009
:103878000F0E04010401876501D001D017D00A0E8C
:1038880004010401886101D001D010D00F0E040199
:103898000401896501D001D009D00A0E0401040190
:1038A8008A6101D001D002D0000E20D00A0E040196
:1038B8000401876101D001D017D00F0E0401040163
:1038C800886501D001D010D00F0E0401040189656C
:1038D80001D001D009D00A0E040104018A6101D087
:1038E80001D002D0010E02D0020E00D012000D0E3F
:1038F80004010401876101D001D017D00D0E040125
:103908000401886101D001D010D00D0E040104011A
:10391800896101D001D009D0100E040104018A6523
:1039280001D001D002D0010E20D00D0E04010401F7
:10393800876101D001D017D0100E040104018865F9
:1039480001D001D010D00D0E04010401896101D00D
:1039580001D009D00D0E040104018A6101D001D003
:1039680002D0000E02D0020E00D0120004018F6FA8
:10397800000E156E04018F51000E246E000E256E88
:10398800000E266E000E276E000E1A6E000E1B6EBD
:10399800000E1C6E000E1D6E010E040104015C6F0A
:1039A800000E04015D6F000E04015E6F000E04013D
:1039B8005F6F04018F6F000E126E04018F51000EAD
:1039C80004010401466F000E0401476F04018F6F64
:1039D800000E046E04018F5104018F6F000E136EE8
:1039E80004018F5112008CC496F48DC497F48AC4D4
:1039F80094F48BC495F47BEC17F0040104018E6FEA
:103A08008CC496F48DC497F48AC494F48BC495F44A
:103A18007BEC17F0040104018F6F0D0E0401040103
:103A28008E6501D001D009D00D0E040104018F6507
:103A380001D001D002D0000E12D00B0E04010401F7
:103A48008E6101D001D009D00D0E040104018F65EB
:103A580001D001D002D0010E02D0020E00D0120017
:103A6800AECFCAF4ABA201D001D002D0AB98AB88DC
:103A780000A201D001D001D029D004010401CA510B
:103A88002B0AD8A401D001D00BD0CD900082280EEB
:103A98000124E96EEA6A020EEA22000EEF6E16D0E1
:103AA800280E0124E96EEA6A020EEA220401CAC459
:103AB800EFFF012A000ECF6E000ECE6ECD809E90D5
:103AC8000401CB6F000E106E0401CB5112009EA0B2
:103AD80001D001D00CD01E0E106401D001D005D049
:103AE800CD90000E016E009201D0102A9E9000B277
:103AF80001D001D001D01CD055EC11F0000E04010A
:103B08000401776F020E0401786F000E04010401AE
:103B1800756F000E0401766F280E04010401736F9F
:103B2800020E0401746FADEC1EF0000E016E0092DF
:103B380012009DC4E9FF9EC4EAFFD890EF369DC4E9
:103B4800E9FF9EC4EAFFEF50D8A401D001D01FD0EE
:103B58009DC4E9FF9EC4EAFF010EEF6E9BC4E9FF16
:103B68009CC4EAFFEE50ED10D8A401D001D008D0D3
:103B78009BC4E9FF9CC4EAFF000EEE6E020EED6ED8
:103B88009BC4E9FF9CC4EAFFEE06000EED5A120042
:103B98006FC4CAF404010401CA29D8A401D001D011
:103BA80009D00401CB6F000E04010401CA6F04019F
:103BB800CB5103D004010401CA2B0E5004010401A7
:103BC800CA6301D001D002D09D980ED00501000E25
:103BD80004010401CA25E96EEA6A0501050EEA2214
:103BE800EF50AD6ECAC46FF412006CEC1EF075ECA9
:103BF8001FF039EC18F037EC1FF05EEC1FF08294E0
:103C08009698000EBD6E8C988C9A8C9C0C0E0401B4
:103C18000401A36F000E0401A46F7C0E04010401CB
:103C2800A16F790E0401A26FA5EC08F05AEC0AF016
:103C38006BEC1DF0FBD714EF00F0280E0401040113
:103C48009B25E96E000E040104019C21EA6EEF50E9
:103C5800040104019E6F040104019E5104019DC4E6
:103C68009FF40401A06B9FBFA00704019F17000EDB
:103C7800A0170401A0519F11D8B401D001D002D0DF
:103C8800D88002D0D89000D012000D0E0401040193
:103C9800946101D001D009D00D0E04010401956191
:103CA80001D001D002D0000E12D0180E0401040178
:103CB800946501D001D009D00D0E0401040195616D
:103CC80001D001D002D0010E02D0020E00D01200A5
:103CD800000EC26E0401706F0F0EC16E04017051A8
:103CE800070EB46E000E806E000E926E000E946E7B
:103CF800000E956E000E826E000E836E000E936E9F
:103D0800000E816E8B9A93989498949294949296BC
:103D180012000401796F000E0B6E04017951040141
:103D2800796F000E166E04017951000E040104012A
:103D3800436F000E0401446F0401796F000E056E95
:103D4800040179510401796F000E146E0401795150
:103D5800120073C479F474C47AF40BD079C4E9FFFF
:103D68007AC4EAFF040175C4EFFF04010401794B2A
:103D78007A2B040104017707D8A078070401772972
:103D8800D8B47829D8A401D001D0E8D700D012003F
:103D980000D00E50040104016F19D8B401D001D02D
:103DA800F8D70501000E0E24E96EEA6A0501050E32
:103DB800EA220401B2C4EFFF0E28D8A401D001D032
:103DC80003D0000E0E6E01D00E2A9D881200040149
:103DD800796F000E036E040179510401796F000EAA
:103DE800026E040179510401796F000E0F6E04010F
:103DF80079510401796F000E0C6E040179510401A8
:103E080004016A6904016B691200116601D001D0CE
:103E180011D000840D6601D001D001D011D00DC0A1
:103E280011F0000E0D6E00B601D001D002D08B7AD1
:103E380001D000961150D8B401D001D001D011069C
:103E4800120096C4A5F497C4A6F494C4A3F495C428
:103E5800A4F4B40E04010401A16F790E0401A26F49
:103E6800A5EC08F01200D594D592D590D596D59AA0
:103E7800D58CF294F28A949A9388F184D58E67EC63
:103E88001FF01200200E04010401A16F790E040135
:103E9800A26FA5EC08F094C495F484EC1FF012000E
:103EA800F40E04010401A16F790E0401A26FA5ECC0
:103EB80008F01200959693988B9AB19AB198A082BF
:103EC800A282B19012008C96948A8B98030EE82EE9
:103ED800FED700F08B88120067EC1FF0D58EB190EA
:103EE8001200D08EF28EF28CF28E1200D59E7EECED
:103EF8001FF012008C86949A12007EC465F412009A
:063F080095C462F41200F2
:1078FA0001000A006400E8031027010010000001DB
:10790A000010556E6B6E6F776E20636F6D6D616ED2
:10791A006420282575290D0A003031323334353672
:10792A003738394142434445460073656C666C6595
:10793A0061726E696E6776320065766572666C6F23
:10794A0075726973680073656C666C6561726E69DD
:10795A006E6700636F64657377697463680066694C
:10796A006E656F6666736574006D616E646F6C79BF
:10797A006E000D0A2B5625750D0A0070726F746F12
:10798A00636F6C0025733A307825583B0061726347
:10799A007465636800286E756C6C29006F72656780
:1079AA006F6E0073656E736F720025733A25733BB1
:1079BA000025733A3078006D6F64656C00686173F6
:1079CA00746100636C617373002B4E0D0A002558B5
:1079DA0025580064617461002B530D0A002B540D65
:1079EA000A0025733A00783130002B57002B5200D9
:0679FA004E0056000000E3
:020000040030CA
:04000000FF36FFFECA
:02000600BFFF3A
:00000001FF
